{
  "_format": "hh-sol-artifact-1",
  "contractName": "Poll",
  "sourceName": "contracts/Poll.sol",
  "abi": [
    {
      "inputs": [
        {
          "internalType": "address",
          "name": "_token",
          "type": "address"
        }
      ],
      "stateMutability": "nonpayable",
      "type": "constructor"
    },
    {
      "anonymous": false,
      "inputs": [
        {
          "indexed": true,
          "internalType": "address",
          "name": "previousOwner",
          "type": "address"
        },
        {
          "indexed": true,
          "internalType": "address",
          "name": "newOwner",
          "type": "address"
        }
      ],
      "name": "OwnershipTransferred",
      "type": "event"
    },
    {
      "inputs": [
        {
          "internalType": "uint256",
          "name": "itemsAmount",
          "type": "uint256"
        },
        {
          "internalType": "uint256",
          "name": "tokenId",
          "type": "uint256"
        },
        {
          "internalType": "uint256",
          "name": "start",
          "type": "uint256"
        },
        {
          "internalType": "uint256",
          "name": "end",
          "type": "uint256"
        }
      ],
      "name": "createPoll",
      "outputs": [
        {
          "internalType": "uint256",
          "name": "",
          "type": "uint256"
        }
      ],
      "stateMutability": "nonpayable",
      "type": "function"
    },
    {
      "inputs": [
        {
          "internalType": "uint256",
          "name": "pollId",
          "type": "uint256"
        }
      ],
      "name": "endPoll",
      "outputs": [
        {
          "internalType": "uint256",
          "name": "",
          "type": "uint256"
        }
      ],
      "stateMutability": "nonpayable",
      "type": "function"
    },
    {
      "inputs": [
        {
          "internalType": "uint256",
          "name": "pollId",
          "type": "uint256"
        }
      ],
      "name": "getPollFinished",
      "outputs": [
        {
          "internalType": "bool",
          "name": "",
          "type": "bool"
        }
      ],
      "stateMutability": "view",
      "type": "function"
    },
    {
      "inputs": [
        {
          "internalType": "uint256",
          "name": "pollId",
          "type": "uint256"
        }
      ],
      "name": "getPollItemsAmount",
      "outputs": [
        {
          "internalType": "uint256",
          "name": "",
          "type": "uint256"
        }
      ],
      "stateMutability": "view",
      "type": "function"
    },
    {
      "inputs": [
        {
          "internalType": "uint256",
          "name": "pollId",
          "type": "uint256"
        }
      ],
      "name": "getPollState",
      "outputs": [
        {
          "internalType": "bool",
          "name": "",
          "type": "bool"
        }
      ],
      "stateMutability": "view",
      "type": "function"
    },
    {
      "inputs": [
        {
          "internalType": "uint256",
          "name": "pollId",
          "type": "uint256"
        },
        {
          "internalType": "uint256",
          "name": "item",
          "type": "uint256"
        }
      ],
      "name": "getPollVotesPerItem",
      "outputs": [
        {
          "internalType": "uint256",
          "name": "",
          "type": "uint256"
        }
      ],
      "stateMutability": "view",
      "type": "function"
    },
    {
      "inputs": [
        {
          "internalType": "uint256",
          "name": "pollId",
          "type": "uint256"
        }
      ],
      "name": "getPollWinner",
      "outputs": [
        {
          "internalType": "uint256",
          "name": "",
          "type": "uint256"
        }
      ],
      "stateMutability": "view",
      "type": "function"
    },
    {
      "inputs": [
        {
          "internalType": "uint256",
          "name": "pollId",
          "type": "uint256"
        }
      ],
      "name": "getUserVote",
      "outputs": [
        {
          "internalType": "uint256",
          "name": "",
          "type": "uint256"
        }
      ],
      "stateMutability": "view",
      "type": "function"
    },
    {
      "inputs": [
        {
          "internalType": "uint256",
          "name": "pollId",
          "type": "uint256"
        }
      ],
      "name": "hasNFT",
      "outputs": [
        {
          "internalType": "bool",
          "name": "",
          "type": "bool"
        }
      ],
      "stateMutability": "view",
      "type": "function"
    },
    {
      "inputs": [
        {
          "internalType": "uint256",
          "name": "pollId",
          "type": "uint256"
        }
      ],
      "name": "hasUserVoted",
      "outputs": [
        {
          "internalType": "bool",
          "name": "",
          "type": "bool"
        }
      ],
      "stateMutability": "view",
      "type": "function"
    },
    {
      "inputs": [],
      "name": "owner",
      "outputs": [
        {
          "internalType": "address",
          "name": "",
          "type": "address"
        }
      ],
      "stateMutability": "view",
      "type": "function"
    },
    {
      "inputs": [
        {
          "internalType": "uint256",
          "name": "",
          "type": "uint256"
        }
      ],
      "name": "pollArr",
      "outputs": [
        {
          "internalType": "uint256",
          "name": "",
          "type": "uint256"
        }
      ],
      "stateMutability": "view",
      "type": "function"
    },
    {
      "inputs": [
        {
          "internalType": "uint256",
          "name": "",
          "type": "uint256"
        }
      ],
      "name": "pollDataList",
      "outputs": [
        {
          "internalType": "uint256",
          "name": "id",
          "type": "uint256"
        },
        {
          "internalType": "uint256",
          "name": "itemsAmount",
          "type": "uint256"
        },
        {
          "internalType": "uint256",
          "name": "tokenId",
          "type": "uint256"
        },
        {
          "internalType": "uint256",
          "name": "startBlock",
          "type": "uint256"
        },
        {
          "internalType": "uint256",
          "name": "endBlock",
          "type": "uint256"
        },
        {
          "internalType": "uint256",
          "name": "winnersItem",
          "type": "uint256"
        },
        {
          "internalType": "bool",
          "name": "active",
          "type": "bool"
        },
        {
          "internalType": "bool",
          "name": "finished",
          "type": "bool"
        }
      ],
      "stateMutability": "view",
      "type": "function"
    },
    {
      "inputs": [
        {
          "internalType": "uint256",
          "name": "",
          "type": "uint256"
        },
        {
          "internalType": "address",
          "name": "",
          "type": "address"
        }
      ],
      "name": "pollUserVoteItemList",
      "outputs": [
        {
          "internalType": "uint256",
          "name": "",
          "type": "uint256"
        }
      ],
      "stateMutability": "view",
      "type": "function"
    },
    {
      "inputs": [
        {
          "internalType": "uint256",
          "name": "",
          "type": "uint256"
        },
        {
          "internalType": "address",
          "name": "",
          "type": "address"
        }
      ],
      "name": "pollUserVoteList",
      "outputs": [
        {
          "internalType": "bool",
          "name": "",
          "type": "bool"
        }
      ],
      "stateMutability": "view",
      "type": "function"
    },
    {
      "inputs": [],
      "name": "renounceOwnership",
      "outputs": [],
      "stateMutability": "nonpayable",
      "type": "function"
    },
    {
      "inputs": [
        {
          "internalType": "uint256",
          "name": "pollId",
          "type": "uint256"
        }
      ],
      "name": "startPoll",
      "outputs": [],
      "stateMutability": "nonpayable",
      "type": "function"
    },
    {
      "inputs": [
        {
          "internalType": "address",
          "name": "newOwner",
          "type": "address"
        }
      ],
      "name": "transferOwnership",
      "outputs": [],
      "stateMutability": "nonpayable",
      "type": "function"
    },
    {
      "inputs": [
        {
          "internalType": "uint256",
          "name": "pollId",
          "type": "uint256"
        },
        {
          "internalType": "uint256",
          "name": "votedItem",
          "type": "uint256"
        }
      ],
      "name": "votePoll",
      "outputs": [],
      "stateMutability": "nonpayable",
      "type": "function"
    }
  ],
  "bytecode": "0x60806040523480156200001157600080fd5b50604051620023b7380380620023b78339818101604052810190620000379190620001d5565b620000576200004b6200009f60201b60201c565b620000a760201b60201c565b80600560006101000a81548173ffffffffffffffffffffffffffffffffffffffff021916908373ffffffffffffffffffffffffffffffffffffffff1602179055505062000207565b600033905090565b60008060009054906101000a900473ffffffffffffffffffffffffffffffffffffffff169050816000806101000a81548173ffffffffffffffffffffffffffffffffffffffff021916908373ffffffffffffffffffffffffffffffffffffffff1602179055508173ffffffffffffffffffffffffffffffffffffffff168173ffffffffffffffffffffffffffffffffffffffff167f8be0079c531659141344cd1fd0a4f28419497f9722a3daafe3b4186f6b6457e060405160405180910390a35050565b600080fd5b600073ffffffffffffffffffffffffffffffffffffffff82169050919050565b60006200019d8262000170565b9050919050565b620001af8162000190565b8114620001bb57600080fd5b50565b600081519050620001cf81620001a4565b92915050565b600060208284031215620001ee57620001ed6200016b565b5b6000620001fe84828501620001be565b91505092915050565b6121a080620002176000396000f3fe608060405234801561001057600080fd5b50600436106101205760003560e01c8063765aa8e1116100ad578063afdda4ec11610071578063afdda4ec14610380578063b6990ee1146103b0578063dcb0578d146103e0578063f2fde38b146103fc578063f43b87781461041857610120565b8063765aa8e1146102a25780638524ceb3146102d257806386194c19146103025780638da5cb5b14610332578063a7df2da61461035057610120565b80634ae59654116100f45780634ae59654146101d15780634e53bab9146102015780635153af5c146102385780635e3e520414610268578063715018a61461029857610120565b8062fc5dbf146101255780632430c2211461015557806324ad0112146101715780632799da38146101a1575b600080fd5b61013f600480360381019061013a91906119c5565b610448565b60405161014c9190611a14565b60405180910390f35b61016f600480360381019061016a9190611a2f565b6105e1565b005b61018b60048036038101906101869190611a2f565b61068e565b6040516101989190611a77565b60405180910390f35b6101bb60048036038101906101b69190611af0565b610764565b6040516101c89190611a14565b60405180910390f35b6101eb60048036038101906101e69190611a2f565b610789565b6040516101f89190611a14565b60405180910390f35b61021b60048036038101906102169190611a2f565b610901565b60405161022f989796959493929190611b30565b60405180910390f35b610252600480360381019061024d9190611a2f565b610963565b60405161025f9190611a77565b60405180910390f35b610282600480360381019061027d9190611af0565b6109ca565b60405161028f9190611a77565b60405180910390f35b6102a06109f9565b005b6102bc60048036038101906102b79190611a2f565b610a81565b6040516102c99190611a14565b60405180910390f35b6102ec60048036038101906102e79190611bae565b610aa5565b6040516102f99190611a14565b60405180910390f35b61031c60048036038101906103179190611a2f565b610cc2565b6040516103299190611a14565b60405180910390f35b61033a610d1c565b6040516103479190611c24565b60405180910390f35b61036a60048036038101906103659190611a2f565b610d45565b6040516103779190611a77565b60405180910390f35b61039a60048036038101906103959190611a2f565b610e41565b6040516103a79190611a77565b60405180910390f35b6103ca60048036038101906103c59190611a2f565b610f3c565b6040516103d79190611a14565b60405180910390f35b6103fa60048036038101906103f591906119c5565b611080565b005b61041660048036038101906104119190611c3f565b61144d565b005b610432600480360381019061042d9190611a2f565b611545565b60405161043f9190611a14565b60405180910390f35b6000610452611630565b73ffffffffffffffffffffffffffffffffffffffff16610470610d1c565b73ffffffffffffffffffffffffffffffffffffffff16146104c6576040517f08c379a00000000000000000000000000000000000000000000000000000000081526004016104bd90611cc9565b60405180910390fd5b600060016000858152602001908152602001600020604051806101200160405290816000820154815260200160018201548152602001600282015481526020016003820154815260200160048201548152602001600582015481526020016006820180548060200260200160405190810160405280929190818152602001828054801561057257602002820191906000526020600020905b81548152602001906001019080831161055e575b505050505081526020016007820160009054906101000a900460ff161515151581526020016007820160019054906101000a900460ff161515151581525050905060008160c0015190508084815181106105cf576105ce611ce9565b5b60200260200101519250505092915050565b6105e9611630565b73ffffffffffffffffffffffffffffffffffffffff16610607610d1c565b73ffffffffffffffffffffffffffffffffffffffff161461065d576040517f08c379a000000000000000000000000000000000000000000000000000000000815260040161065490611cc9565b60405180910390fd5b600180600083815260200190815260200160002060070160006101000a81548160ff02191690831515021790555050565b6000806001600084815260200190815260200160002090506000600560009054906101000a900473ffffffffffffffffffffffffffffffffffffffff1673ffffffffffffffffffffffffffffffffffffffff1662fdd58e3384600201546040518363ffffffff1660e01b8152600401610708929190611d18565b602060405180830381865afa158015610725573d6000803e3d6000fd5b505050506040513d601f19601f820116820180604052508101906107499190611d56565b111561075957600191505061075f565b60009150505b919050565b6003602052816000526040600020602052806000526040600020600091509150505481565b6000610793611630565b73ffffffffffffffffffffffffffffffffffffffff166107b1610d1c565b73ffffffffffffffffffffffffffffffffffffffff1614610807576040517f08c379a00000000000000000000000000000000000000000000000000000000081526004016107fe90611cc9565b60405180910390fd5b60006001600084815260200190815260200160002060405180610120016040529081600082015481526020016001820154815260200160028201548152602001600382015481526020016004820154815260200160058201548152602001600682018054806020026020016040519081016040528092919081815260200182805480156108b357602002820191906000526020600020905b81548152602001906001019080831161089f575b505050505081526020016007820160009054906101000a900460ff161515151581526020016007820160019054906101000a900460ff16151515158152505090508060200151915050919050565b60016020528060005260406000206000915090508060000154908060010154908060020154908060030154908060040154908060050154908060070160009054906101000a900460ff16908060070160019054906101000a900460ff16905088565b60006002600083815260200190815260200160002060003373ffffffffffffffffffffffffffffffffffffffff1673ffffffffffffffffffffffffffffffffffffffff16815260200190815260200160002060009054906101000a900460ff169050919050565b60026020528160005260406000206020528060005260406000206000915091509054906101000a900460ff1681565b610a01611630565b73ffffffffffffffffffffffffffffffffffffffff16610a1f610d1c565b73ffffffffffffffffffffffffffffffffffffffff1614610a75576040517f08c379a0000000000000000000000000000000000000000000000000000000008152600401610a6c90611cc9565b60405180910390fd5b610a7f6000611638565b565b60048181548110610a9157600080fd5b906000526020600020016000915090505481565b6000610aaf611630565b73ffffffffffffffffffffffffffffffffffffffff16610acd610d1c565b73ffffffffffffffffffffffffffffffffffffffff1614610b23576040517f08c379a0000000000000000000000000000000000000000000000000000000008152600401610b1a90611cc9565b60405180910390fd5b610b2d60066116fc565b610b3561187e565b6000610b416006611712565b604051602001610b519190611da4565b6040516020818303038152906040528051906020012060001c90508082600001818152505086826020018181525050858260400181815250508667ffffffffffffffff811115610ba457610ba3611dbf565b5b604051908082528060200260200182016040528015610bd25781602001602082028036833780820191505090505b508260c001819052508160016000838152602001908152602001600020600082015181600001556020820151816001015560408201518160020155606082015181600301556080820151816004015560a0820151816005015560c0820151816006019080519060200190610c479291906118ce565b5060e08201518160070160006101000a81548160ff0219169083151502179055506101008201518160070160016101000a81548160ff02191690831515021790555090505060048190806001815401808255809150506001900390600052602060002001600090919091909150558092505050949350505050565b60006003600083815260200190815260200160002060003373ffffffffffffffffffffffffffffffffffffffff1673ffffffffffffffffffffffffffffffffffffffff168152602001908152602001600020549050919050565b60008060009054906101000a900473ffffffffffffffffffffffffffffffffffffffff16905090565b600080600160008481526020019081526020016000206040518061012001604052908160008201548152602001600182015481526020016002820154815260200160038201548152602001600482015481526020016005820154815260200160068201805480602002602001604051908101604052809291908181526020018280548015610df257602002820191906000526020600020905b815481526020019060010190808311610dde575b505050505081526020016007820160009054906101000a900460ff161515151581526020016007820160019054906101000a900460ff1615151515815250509050806101000151915050919050565b600080600160008481526020019081526020016000206040518061012001604052908160008201548152602001600182015481526020016002820154815260200160038201548152602001600482015481526020016005820154815260200160068201805480602002602001604051908101604052809291908181526020018280548015610eee57602002820191906000526020600020905b815481526020019060010190808311610eda575b505050505081526020016007820160009054906101000a900460ff161515151581526020016007820160019054906101000a900460ff16151515158152505090508060e00151915050919050565b6000610f4782610d45565b610f86576040517f08c379a0000000000000000000000000000000000000000000000000000000008152600401610f7d90611e3a565b60405180910390fd5b600060016000848152602001908152602001600020604051806101200160405290816000820154815260200160018201548152602001600282015481526020016003820154815260200160048201548152602001600582015481526020016006820180548060200260200160405190810160405280929190818152602001828054801561103257602002820191906000526020600020905b81548152602001906001019080831161101e575b505050505081526020016007820160009054906101000a900460ff161515151581526020016007820160019054906101000a900460ff16151515158152505090508060a00151915050919050565b60006001600084815260200190815260200160002090508060070160009054906101000a900460ff166110e8576040517f08c379a00000000000000000000000000000000000000000000000000000000081526004016110df90611ea6565b60405180910390fd5b6000600560009054906101000a900473ffffffffffffffffffffffffffffffffffffffff1673ffffffffffffffffffffffffffffffffffffffff1662fdd58e3384600201546040518363ffffffff1660e01b815260040161114a929190611d18565b602060405180830381865afa158015611167573d6000803e3d6000fd5b505050506040513d601f19601f8201168201806040525081019061118b9190611d56565b116111cb576040517f08c379a00000000000000000000000000000000000000000000000000000000081526004016111c290611f12565b60405180910390fd5b6002600084815260200190815260200160002060003373ffffffffffffffffffffffffffffffffffffffff1673ffffffffffffffffffffffffffffffffffffffff16815260200190815260200160002060009054906101000a900460ff1615611269576040517f08c379a000000000000000000000000000000000000000000000000000000000815260040161126090611f7e565b60405180910390fd5b600081600601838154811061128157611280611ce9565b5b90600052602060002001549050600060018261129d9190611fcd565b9050808360060185815481106112b6576112b5611ce9565b5b90600052602060002001819055508260016000878152602001908152602001600020600082015481600001556001820154816001015560028201548160020155600382015481600301556004820154816004015560058201548160050155600682018160060190805461132a92919061191b565b506007820160009054906101000a900460ff168160070160006101000a81548160ff0219169083151502179055506007820160019054906101000a900460ff168160070160016101000a81548160ff02191690831515021790555090505060016002600087815260200190815260200160002060003373ffffffffffffffffffffffffffffffffffffffff1673ffffffffffffffffffffffffffffffffffffffff16815260200190815260200160002060006101000a81548160ff021916908315150217905550836003600087815260200190815260200160002060003373ffffffffffffffffffffffffffffffffffffffff1673ffffffffffffffffffffffffffffffffffffffff168152602001908152602001600020819055505050505050565b611455611630565b73ffffffffffffffffffffffffffffffffffffffff16611473610d1c565b73ffffffffffffffffffffffffffffffffffffffff16146114c9576040517f08c379a00000000000000000000000000000000000000000000000000000000081526004016114c090611cc9565b60405180910390fd5b600073ffffffffffffffffffffffffffffffffffffffff168173ffffffffffffffffffffffffffffffffffffffff161415611539576040517f08c379a000000000000000000000000000000000000000000000000000000000815260040161153090612095565b60405180910390fd5b61154281611638565b50565b600061154f611630565b73ffffffffffffffffffffffffffffffffffffffff1661156d610d1c565b73ffffffffffffffffffffffffffffffffffffffff16146115c3576040517f08c379a00000000000000000000000000000000000000000000000000000000081526004016115ba90611cc9565b60405180910390fd5b60006001600084815260200190815260200160002060070160006101000a81548160ff021916908315150217905550600180600084815260200190815260200160002060070160016101000a81548160ff02191690831515021790555061162982611720565b9050919050565b600033905090565b60008060009054906101000a900473ffffffffffffffffffffffffffffffffffffffff169050816000806101000a81548173ffffffffffffffffffffffffffffffffffffffff021916908373ffffffffffffffffffffffffffffffffffffffff1602179055508173ffffffffffffffffffffffffffffffffffffffff168173ffffffffffffffffffffffffffffffffffffffff167f8be0079c531659141344cd1fd0a4f28419497f9722a3daafe3b4186f6b6457e060405160405180910390a35050565b6001816000016000828254019250508190555050565b600081600001549050919050565b60006001600083815260200190815260200160002060070160009054906101000a900460ff1615611786576040517f08c379a000000000000000000000000000000000000000000000000000000000815260040161177d90612101565b60405180910390fd5b6000600160008481526020019081526020016000206006018054806020026020016040519081016040528092919081815260200182805480156117e857602002820191906000526020600020905b8154815260200190600101908083116117d4575b505050505090506000805b825181116118585782518110156118455782828151811061181757611816611ce9565b5b602002602001015183828151811061183257611831611ce9565b5b60200260200101511115611844578091505b5b808061185090612121565b9150506117f3565b508060016000868152602001908152602001600020600501819055508092505050919050565b604051806101200160405280600081526020016000815260200160008152602001600081526020016000815260200160008152602001606081526020016000151581526020016000151581525090565b82805482825590600052602060002090810192821561190a579160200282015b828111156119095782518255916020019190600101906118ee565b5b509050611917919061196d565b5090565b82805482825590600052602060002090810192821561195c5760005260206000209182015b8281111561195b578254825591600101919060010190611940565b5b509050611969919061196d565b5090565b5b8082111561198657600081600090555060010161196e565b5090565b600080fd5b6000819050919050565b6119a28161198f565b81146119ad57600080fd5b50565b6000813590506119bf81611999565b92915050565b600080604083850312156119dc576119db61198a565b5b60006119ea858286016119b0565b92505060206119fb858286016119b0565b9150509250929050565b611a0e8161198f565b82525050565b6000602082019050611a296000830184611a05565b92915050565b600060208284031215611a4557611a4461198a565b5b6000611a53848285016119b0565b91505092915050565b60008115159050919050565b611a7181611a5c565b82525050565b6000602082019050611a8c6000830184611a68565b92915050565b600073ffffffffffffffffffffffffffffffffffffffff82169050919050565b6000611abd82611a92565b9050919050565b611acd81611ab2565b8114611ad857600080fd5b50565b600081359050611aea81611ac4565b92915050565b60008060408385031215611b0757611b0661198a565b5b6000611b15858286016119b0565b9250506020611b2685828601611adb565b9150509250929050565b600061010082019050611b46600083018b611a05565b611b53602083018a611a05565b611b606040830189611a05565b611b6d6060830188611a05565b611b7a6080830187611a05565b611b8760a0830186611a05565b611b9460c0830185611a68565b611ba160e0830184611a68565b9998505050505050505050565b60008060008060808587031215611bc857611bc761198a565b5b6000611bd6878288016119b0565b9450506020611be7878288016119b0565b9350506040611bf8878288016119b0565b9250506060611c09878288016119b0565b91505092959194509250565b611c1e81611ab2565b82525050565b6000602082019050611c396000830184611c15565b92915050565b600060208284031215611c5557611c5461198a565b5b6000611c6384828501611adb565b91505092915050565b600082825260208201905092915050565b7f4f776e61626c653a2063616c6c6572206973206e6f7420746865206f776e6572600082015250565b6000611cb3602083611c6c565b9150611cbe82611c7d565b602082019050919050565b60006020820190508181036000830152611ce281611ca6565b9050919050565b7f4e487b7100000000000000000000000000000000000000000000000000000000600052603260045260246000fd5b6000604082019050611d2d6000830185611c15565b611d3a6020830184611a05565b9392505050565b600081519050611d5081611999565b92915050565b600060208284031215611d6c57611d6b61198a565b5b6000611d7a84828501611d41565b91505092915050565b6000819050919050565b611d9e611d998261198f565b611d83565b82525050565b6000611db08284611d8d565b60208201915081905092915050565b7f4e487b7100000000000000000000000000000000000000000000000000000000600052604160045260246000fd5b7f506f6c6c206e6f742066696e6973686564207965740000000000000000000000600082015250565b6000611e24601583611c6c565b9150611e2f82611dee565b602082019050919050565b60006020820190508181036000830152611e5381611e17565b9050919050565b7f506f6c6c206973206e6f74206163746976650000000000000000000000000000600082015250565b6000611e90601283611c6c565b9150611e9b82611e5a565b602082019050919050565b60006020820190508181036000830152611ebf81611e83565b9050919050565b7f5573657220686173206e6f204e46540000000000000000000000000000000000600082015250565b6000611efc600f83611c6c565b9150611f0782611ec6565b602082019050919050565b60006020820190508181036000830152611f2b81611eef565b9050919050565b7f5573657220616c726561647920766f7465640000000000000000000000000000600082015250565b6000611f68601283611c6c565b9150611f7382611f32565b602082019050919050565b60006020820190508181036000830152611f9781611f5b565b9050919050565b7f4e487b7100000000000000000000000000000000000000000000000000000000600052601160045260246000fd5b6000611fd88261198f565b9150611fe38361198f565b9250827fffffffffffffffffffffffffffffffffffffffffffffffffffffffffffffffff0382111561201857612017611f9e565b5b828201905092915050565b7f4f776e61626c653a206e6577206f776e657220697320746865207a65726f206160008201527f6464726573730000000000000000000000000000000000000000000000000000602082015250565b600061207f602683611c6c565b915061208a82612023565b604082019050919050565b600060208201905081810360008301526120ae81612072565b9050919050565b7f506f6c6c206973207374696c6c20616374697665000000000000000000000000600082015250565b60006120eb601483611c6c565b91506120f6826120b5565b602082019050919050565b6000602082019050818103600083015261211a816120de565b9050919050565b600061212c8261198f565b91507fffffffffffffffffffffffffffffffffffffffffffffffffffffffffffffffff82141561215f5761215e611f9e565b5b60018201905091905056fea26469706673582212202eaaa057b37a0d623ebc41b5082c27394b4306768cd25f3dae6c714cf20c9ce164736f6c634300080a0033",
  "linkReferences": {},
  "deployedLinkReferences": {}
}